:101100003F0006005B004F0066006D007D00070099
:101110007F006F0077007C0039005E00790071006D
:1011200040003140000A3C4022023D400C00B01219
:1011300048133C4000023D4000113E402200B012E6
:101140009213B012D611B0128E13C24C3500F2D0E9
:1011500010003100C24331003041C2931F00C2432E
:101160001F00C2931E00F2431E00C2933300C2430D
:101170003300C2933200F2433200C2933700C243BD
:101180003700C2933600F2433600F2F0FC0026002E
:10119000F2D003002200D2432100F2431D00F243AB
:1011A0003100F2433500B24010016001B2400080CE
:1011B0007201B24010006201B24010018001B240E1
:1011C000F4019201B2401000820182432C023C40A3
:1011D0000C0030404A11B240805A2001B0125A111E
:1011E000B012341332D0D8003041F2E321000013A2
:1011F000C24C1D00E2423100C2433100C24D1D000D
:10120000F2423100A73FC24C1D00D2433100C2431D
:101210003100C24D1D00E24331009C3F0A120B1207
:101220000D120C120F120E12B01292123A400A0056
:101230001C422202B0127C131C422202B0126C1318
:10124000B01206121C422402B0127C131C4224026B
:10125000B0126C13B012F011B2532602B2532A022C
:1012600082932A020F34B2532802929328020A343E
:1012700092932C0202241F43013C0F43824F2C0205
:10128000B01234133E413F413C413D413B413A4164
:1012900000130A120B121F4228021E422A021B428E
:1012A00026023D404A1192932C020B200A4B1E93BA
:1012B00004380B4E3C4021000D3C0B4F3C401100CC
:1012C000093C1E9304380A4E3C400C00033C0A4F74
:1012D0003C400A008D12824B2402824A22023B418A
:1012E0003A4130418C118E11091209430E93033497
:1012F0003EE31E5319D30C9303343CE31C5339E3F0
:10130000B0121C1319B302243CE31C5329B302246A
:101310003EE31E53394130417CF37EF30F4E0D4CBA
:101320000E431C430D5D0E6E0E9F01280E8F0C6C3C
:10133000F92B3041B2401E002602B24005002802BF
:10134000B24019002A0230410F4C0F5D033CCC43E0
:1013500000001C530C9FFB2330410F4C043CFF4DFD
:1013600000001F533E530E93FA2330410E4AB01231
:10137000E8120C5C0D4B1C4C000230410E4AB012BE
:10138000E8120E5E1B4E0002304130409613304092
:081390008A1330405A13FF3F9D
:02FFF2001C12DF
:02FFFA00EA110A
:02FFFE002211CE
:00112201CC
:00000001FF
